{
  "transactions": [
    {
      "hash": "0xe3242e4c880ba0961336d9abab6f0a1b70421beae8bb81c084cd8656c07a80cc",
      "transactionType": "CALL",
      "contractName": null,
      "contractAddress": "0x779877A7B0D9E8603169DdbD7836e478b4624789",
      "function": "transferAndCall(address,uint256,bytes)",
      "arguments": [
        "0x9DdfaCa8183c41ad55329BdeeD9F6A8d53168B1B",
        "3000000000000000000",
        "0x3df43d986cea62437cac5a4994bdf45e8b72bc7f2b770980e4a08a9e76b40b71"
      ],
      "transaction": {
        "from": "0x8c3636e1b873BAD09C4d401CaF38cDe28d81F4A6",
        "to": "0x779877A7B0D9E8603169DdbD7836e478b4624789",
        "gas": "0x1c1ff",
        "value": "0x0",
        "input": "0x4000aea00000000000000000000000009ddfaca8183c41ad55329bdeed9f6a8d53168b1b00000000000000000000000000000000000000000000000029a2241af62c0000000000000000000000000000000000000000000000000000000000000000006000000000000000000000000000000000000000000000000000000000000000203df43d986cea62437cac5a4994bdf45e8b72bc7f2b770980e4a08a9e76b40b71",
        "nonce": "0x11",
        "chainId": "0xaa36a7"
      },
      "additionalContracts": [],
      "isFixedGasLimit": false
    }
  ],
  "receipts": [
    {
      "status": "0x1",
      "cumulativeGasUsed": "0x1250685",
      "logs": [
        {
          "address": "0x779877A7B0D9E8603169DdbD7836e478b4624789",
          "topics": [
            "0xddf252ad1be2c89b69c2b068fc378daa952ba7f163c4a11628f55a4df523b3ef",
            "0x0000000000000000000000008c3636e1b873bad09c4d401caf38cde28d81f4a6",
            "0x0000000000000000000000009ddfaca8183c41ad55329bdeed9f6a8d53168b1b"
          ],
          "data": "0x00000000000000000000000000000000000000000000000029a2241af62c0000",
          "blockHash": "0x4653b2411daccae068f4f493a2d7f49342e02e296581e3550e84d6f4fd332de9",
          "blockNumber": "0x6919c3",
          "transactionHash": "0xe3242e4c880ba0961336d9abab6f0a1b70421beae8bb81c084cd8656c07a80cc",
          "transactionIndex": "0x42",
          "logIndex": "0x7b",
          "removed": false
        },
        {
          "address": "0x779877A7B0D9E8603169DdbD7836e478b4624789",
          "topics": [
            "0xe19260aff97b920c7df27010903aeb9c8d2be5d310a2c67824cf3f15396e4c16",
            "0x0000000000000000000000008c3636e1b873bad09c4d401caf38cde28d81f4a6",
            "0x0000000000000000000000009ddfaca8183c41ad55329bdeed9f6a8d53168b1b"
          ],
          "data": "0x00000000000000000000000000000000000000000000000029a2241af62c0000000000000000000000000000000000000000000000000000000000000000004000000000000000000000000000000000000000000000000000000000000000203df43d986cea62437cac5a4994bdf45e8b72bc7f2b770980e4a08a9e76b40b71",
          "blockHash": "0x4653b2411daccae068f4f493a2d7f49342e02e296581e3550e84d6f4fd332de9",
          "blockNumber": "0x6919c3",
          "transactionHash": "0xe3242e4c880ba0961336d9abab6f0a1b70421beae8bb81c084cd8656c07a80cc",
          "transactionIndex": "0x42",
          "logIndex": "0x7c",
          "removed": false
        },
        {
          "address": "0x9DdfaCa8183c41ad55329BdeeD9F6A8d53168B1B",
          "topics": [
            "0x1ced9348ff549fceab2ac57cd3a9de38edaaab274b725ee82c23e8fc8c4eec7a",
            "0x3df43d986cea62437cac5a4994bdf45e8b72bc7f2b770980e4a08a9e76b40b71"
          ],
          "data": "0x000000000000000000000000000000000000000000000000000000000000000000000000000000000000000000000000000000000000000029a2241af62c0000",
          "blockHash": "0x4653b2411daccae068f4f493a2d7f49342e02e296581e3550e84d6f4fd332de9",
          "blockNumber": "0x6919c3",
          "transactionHash": "0xe3242e4c880ba0961336d9abab6f0a1b70421beae8bb81c084cd8656c07a80cc",
          "transactionIndex": "0x42",
          "logIndex": "0x7d",
          "removed": false
        }
      ],
      "logsBloom": "0x00000004000000000000000000000000000000000020000000000000020000000000020000000000000000000000000000000000000000000000400000000000000000000000000000000008000000000000000000000000000020000022800008000000000000000000000000000000000000000000000000000010000040000000000000000000000000010000800000000020000000000000000000000000000000000000000000000000010000000000000000000000000004000000000000000002000000000000000000000000000000000020000100000000000000000010000000000000800400000000000000000000000000000000000000000000",
      "type": "0x2",
      "transactionHash": "0xe3242e4c880ba0961336d9abab6f0a1b70421beae8bb81c084cd8656c07a80cc",
      "transactionIndex": "0x42",
      "blockHash": "0x4653b2411daccae068f4f493a2d7f49342e02e296581e3550e84d6f4fd332de9",
      "blockNumber": "0x6919c3",
      "gasUsed": "0x133b1",
      "effectiveGasPrice": "0x18c78c6cc",
      "from": "0x8c3636e1b873BAD09C4d401CaF38cDe28d81F4A6",
      "to": "0x779877A7B0D9E8603169DdbD7836e478b4624789",
      "contractAddress": null
    }
  ],
  "libraries": [],
  "pending": [],
  "returns": {},
  "timestamp": 1729104555,
  "chain": 11155111,
  "commit": "86829af"
}